S01D000051395F4D617279456861625F536D617274486F6D652E7372656326
S11300000C9431000C944E000C944E000C944E0051
S11300100C944E000C944E000C944E000C9460050D
S11300200C944E000C944E000C944E000C944E0014
S11300300C944E000C944E000C944E000C944E0004
S11300400C944E000C944E000C944E000C944E00F4
S11300500C944E006C00700074007B007F008600DE
S11300608D0011241FBECFE5D8E0DEBFCDBF10E068
S1130070A0E6B0E0EEEBFFE002C005900D92A83BD5
S1130080B107D9F720E0A8EBB0E001C01D92A23D72
S1130090B207E1F70E9450040C94DD070C940000B1
S11300A086B1826086B986B1846086B987B180647E
S11300B087B986B1806886B90895E82F87B1807EB4
S11300C087B98E2F90E0FC013197E730F10570F588
S11300D0E65DFF4F0C94C80787B1816087B926C0DD
S11300E087B1826087B922C087B1826087B987B13E
S11300F0816087B91BC087B1846087B917C087B195
S1130100846087B987B1816087B910C087B1846082
S113011087B987B1826087B909C087B1846087B91C
S113012087B1826087B987B1816087B986B18064FD
S113013086B93699FECF84B195B10895CF93C82F6F
S11301400E9488058C2F0E949205CF91089560E04B
S113015083E00E947A019091BB00891306C09091BC
S1130160BA009F5F9093BA0002C01092BA009091B7
S1130170BA00933010F08093BE008093BB000895C2
S113018061E083E00E947A019091B900891306C06E
S11301909091B8009F5F9093B80002C01092B8008D
S11301A09091B800933010F08093BD008093B90013
S11301B00895813039F018F0823039F009C0809107
S11301C0BE0008958091BD0008958091BC000895FB
S11301D080E00895813031F441E064E083E00E94DE
S11301E00D01089540E064E083E00E940D0108954C
S11301F08091BF00813041F441E064E083E00E94DB
S11302000D011092BF00089540E064E083E00E9475
S11302100D0181E08093BF000895813001F130F039
S11302208230B1F1833009F44CC00895413059F45F
S11302302BB381E090E002C0880F991F6A95E2F722
S1130240822B8BBB08952BB381E090E002C0880F12
S1130250991F6A95E2F7809582238BBB08954130FC
S113026059F428B381E090E002C0880F991F6A9581
S1130270E2F7822B88BB089528B381E090E002C0A6
S1130280880F991F6A95E2F78095822388BB0895A9
S1130290413059F425B381E090E002C0880F991FE2
S11302A06A95E2F7822B85BB089525B381E090E03F
S11302B002C0880F991F6A95E2F78095822385BB57
S11302C00895413059F422B381E090E002C0880FD0
S11302D0991F6A95E2F7822B82BB089522B381E0CD
S11302E090E002C0880F991F6A95E2F780958223F7
S11302F082BB0895813079F028F08230A9F08330F0
S1130300E1F024C089B390E002C0959587956A9581
S1130310E2F78170089586B390E002C095958795C1
S11303206A95E2F78170089583B390E002C09595D1
S113033087956A95E2F78170089580B390E002C0D2
S1130340959587956A95E2F78170089580E0089500
S113035080E0C6C0982F969596959695282F27707D
S11303609130B1F138F0923009F460C0933009F45F
S11303708AC0B5C0482F50E0FA01E05AFF4F90817F
S113038091110DC09AB341E050E0BA0102C0660F6A
S1130390771F2A95E2F79B01292B2ABBA0C09AB3A9
S11303A061E070E0FB0102C0EE0FFF1F2A95E2F747
S11303B09F016E2F609596239ABBFA01E05AFF4F76
S11303C09081913009F08BC09BB3292B2BBB87C044
S11303D0482F50E0FA01E05AFF4F908191110DC06F
S11303E097B341E050E0BA0102C0660F771F2A9527
S11303F0E2F79B01292B27BB72C097B361E070E041
S1130400FB0102C0EE0FFF1F2A95E2F79F016E2F3A
S11304106095962397BBFA01E05AFF4F9081913083
S113042009F05DC098B3292B28BB59C0482F50E070
S1130430FA01E05AFF4F908191110DC094B341E04D
S113044050E0BA0102C0660F771F2A95E2F79B01BC
S1130450292B24BB44C094B361E070E0FB0102C0CB
S1130460EE0FFF1F2A95E2F79F016E2F60959623EA
S113047094BBFA01E05AFF4F9081913081F595B316
S1130480292B25BB2CC0482F50E0FA01E05AFF4F1E
S1130490908191110DC091B341E050E0BA0102C0C6
S11304A0660F771F2A95E2F79B01292B21BB17C002
S11304B091B361E070E0FB0102C0EE0FFF1F2A95CB
S11304C0E2F79F016E2F6095962391BBFA01E05AE3
S11304D0FF4F9081913019F492B3292B22BB8F5F87
S11304E0803208F437CF0895813019F40E946104F2
S11304F0089580E00E9461040895CF93C82F80FF7F
S113050006C041E064E080E00E940D0105C040E0C7
S113051064E080E00E940D01C1FF06C041E065E097
S113052080E00E940D0105C040E065E080E00E948B
S11305300D01C2FF06C041E066E080E00E940D01AB
S113054005C040E066E080E00E940D01C3FF06C0E4
S113055041E067E080E00E940D0105C040E067E0F3
S113056080E00E940D01CF910895CF93C82F40E001
S113057061E081E00E940D018C2F0E947D0241E028
S113058063E081E00E940D0187EB9BE00197F1F7A6
S113059000C0000040E063E081E00E940D0187EBB1
S11305A09BE00197F1F700C00000CF91089580E02F
S11305B00E94B50281E00E94B5020895CF93813074
S11305C061F480E8860FC62FCF7082958F700E94E9
S11305D0B5028C2F0E94B5020DC0823059F480EC14
S11305E0860FC62FCF7082958F700E94B5028C2F14
S11305F00E94B502CF91089580E00E947D028FE5AC
S11306009AEE0197F1F700C0000083E00E94B50262
S113061087E99AE30197F1F700C0000083E00E94A4
S1130620B50287EE90E80197F1F700C0000083E07F
S11306300E94B50282E00E94B50282E00E94B502E7
S113064088E00E94B50280E00E94B5028CE00E941E
S1130650B50280E00E94B50286E00E94B5020895CA
S1130660CF93DF93D82FDF70C82FC07F41E061E0C4
S113067081E00E940D018C2F82958F700E947D0273
S113068041E063E081E00E940D0187EB9BE001976C
S1130690F1F700C0000040E063E081E00E940D013A
S11306A087EB9BE00197F1F700C000008D2F0E94BB
S11306B07D0241E063E081E00E940D0187EB9BE055
S11306C00197F1F700C0000040E063E081E00E9480
S11306D00D0187EB9BE00197F1F700C00000DF916B
S11306E0CF9108950F931F93CF938C01C0E003C063
S11306F00E943003CF5FF801EC0FF11D808181115E
S1130700F7CFCF911F910F910895CF93DF9300D02E
S113071000D0CDB7DEB7AC019C0136952795369550
S1130720279536952795A5ECB0E20E94CE079295C1
S113073082958F7089279F70892720E3280F29834A
S113074068EE73E0869F9001879F300D969F300D71
S11307501124421B530B9A013695279536952795FC
S1130760ABE7B4E10E94CE079695879520E3280F66
S11307702A8364E6689F9001699F300D1124421B0F
S1130780530B9A01ADECBCEC0E94CE07969587956D
S1130790969587959695879520E3280F2B839C0142
S11307A0220F331F880F991F880F991F880F991FD5
S11307B0820F931F481B590B405D4C8320E00EC0F1
S11307C0822F90E0E1E0F0E0EC0FFD1FE80FF91F4D
S11307D03081FC01E653FF4F30832F5F243080F3D8
S11307E01092CE000F900F900F900F90DF91CF9149
S11307F00895813051F018F0823069F00895462F41
S113080067E083E00E940D010895462F66E083E0CF
S11308100E940D010895462F65E083E00E940D01BA
S113082008958091C200813041F441E067E083E0A3
S11308300E940D011092C200089540E067E083E039
S11308400E940D0181E08093C20008958091C1004F
S1130850813041F441E066E083E00E940D01109292
S1130860C100089540E066E083E00E940D0181E04C
S11308708093C10008958091C000813041F441E02B
S113088065E083E00E940D011092C000089540E0ED
S113089065E083E00E940D0181E08093C00008952B
S11308A00E94A8010E9456050E9450000E94FC026A
S11308B00E94D7020E9488050E94F50480E090E01F
S11308C00895813031F441E063E083E00E940D013A
S11308D0089540E063E083E00E940D010895CF9302
S11308E08091C300813021F08091C400813039F4BB
S11308F00E94D70280E890E00E94720329C0C09150
S1130900D1000E94D7028EE890E00E947203CC23AB
S113091024F48DE20E943003C1958C2FCC0F990BE7
S11309200E9485038AEC90E00E94720360E082E0FA
S11309300E94DE028091CF009091D0000E94850336
S113094084E990E00E9472038AEC90E00E947203B2
S1130950CF9108958091D10083323CF48091CF00EF
S11309609091D0008115924020F081E08093C300E3
S113097002C01092C30080E00E94D900813019F4B3
S11309808093C400089581E00E94D900813011F45D
S11309901092C40008958091C300813021F08091A9
S11309A0C400813079F481E00E9474020E94110431
S11309B00E9426040E943B040E94F80087E70E94DC
S11309C09E00089580E00E94740260E080E00E942E
S11309D0F90360E081E00E94F90360E082E00E9494
S11309E0F90380E00E94EA0008958091C9008130F3
S11309F0E1F7C090C500D090C600E090C700F09029
S1130A00C800C0E023C00C2F10E0F801EE0FFF1F58
S1130A10EE0FFF1FE556FF4F2081318140E050E08B
S1130A20C701B6010E94A607672B682B692B59F4EE
S1130A30000F111F000F111FF801E556FF4F028030
S1130A40F381E02D09951092C900CF5FC730D8F229
S1130A50CCCF80E00E945D009093D0008093CF00C3
S1130A60089581E00E945D00BC0180E090E00E9456
S1130A70AB0621E73DE34EE451E40E94030620E087
S1130A8030E04AE754E40E94390720E030E44CE1C6
S1130A9057E40E94960520E030E04AE754E40E94BF
S1130AA003060E9475066093D100089589E08EBD07
S1130AB08FED9EE29BBD8ABD80E189BF7894089545
S1130AC01F920F920FB60F9211248F939F93AF939F
S1130AD0BF938091C5009091C600A091C700B091CA
S1130AE0C8000196A11DB11D8093C5009093C60056
S1130AF0A093C700B093C80081E08093C900BF9160
S1130B00AF919F918F910F900FBE0F901F901895EA
S1130B1010BC8DE489B98AB188618AB980B58668C8
S1130B2080BD08955D9BFECF8CB908955058BB27B6
S1130B30AA270E94AE050C94FF060E94F10638F025
S1130B400E94F80620F039F49F3F19F426F40C941F
S1130B50EE060EF4E095E7FB0C94E806E92F0E94FC
S1130B60100758F3BA17620773078407950720F034
S1130B7079F4A6F50C9432070EF4E0950B2EBA2FF7
S1130B80A02D0B01B90190010C01CA01A00111248F
S1130B90FF27591B99F0593F50F4503E68F11A163B
S1130BA0F040A22F232F342F4427585FF3CF4695CC
S1130BB037952795A795F0405395C9F77EF41F16EE
S1130BC0BA0B620B730B840BBAF09150A1F0FF0FB8
S1130BD0BB1F661F771F881FC2F70EC0BA0F621FA4
S1130BE0731F841F48F4879577956795B795F79594
S1130BF09E3F08F0B0CF9395880F08F09927EE0F29
S1130C009795879508950E9417060C94FF060E94F5
S1130C10F80658F00E94F10640F029F45F3F29F0ED
S1130C200C94E80651110C9433070C94EE060E94C0
S1130C30100768F39923B1F3552391F3951B550BD2
S1130C40BB27AA2762177307840738F09F5F5F4F9B
S1130C50220F331F441FAA1FA9F335D00E2E3AF0DA
S1130C60E0E832D091505040E695001CCAF72BD0F2
S1130C70FE2F29D0660F771F881FBB1F2617370743
S1130C804807AB07B0E809F0BB0B802DBF01FF2775
S1130C9093585F4F3AF09E3F510578F00C94E80664
S1130CA00C9433075F3FE4F3983ED4F3869577952D
S1130CB06795B795F7959F5FC9F7880F911D96952E
S1130CC0879597F90895E1E0660F771F881FBB1F8A
S1130CD0621773078407BA0720F0621B730B840B37
S1130CE0BA0BEE1F88F7E09508950E947C0668947D
S1130CF0B1110C94330708950E94180788F09F5788
S1130D0098F0B92F9927B751B0F0E1F0660F771F2B
S1130D10881F991F1AF0BA95C9F714C0B13091F021
S1130D200E943207B1E008950C943207672F782FA0
S1130D308827B85F39F0B93FCCF3869577956795E6
S1130D40B395D9F73EF490958095709561957F4F52
S1130D508F4F9F4F0895E89409C097FB3EF49095F8
S1130D608095709561957F4F8F4F9F4F9923A9F080
S1130D70F92F96E9BB279395F6958795779567950F
S1130D80B795F111F8CFFAF4BB0F11F460FF1BC053
S1130D906F5F7F4F8F4F9F4F16C0882311F096E9E6
S1130DA011C0772321F09EE8872F762F05C0662394
S1130DB071F096E8862F70E060E02AF09A95660F4D
S1130DC0771F881FDAF7880F9695879597F9089506
S1130DD097F99F6780E870E060E008959FEF80ECEA
S1130DE0089500240A94161617061806090608958D
S1130DF000240A9412161306140605060895092EF3
S1130E000394000C11F4882352F0BB0F40F4BF2B61
S1130E1011F460FF04C06F5F7F4F8F4F9F4F0895A1
S1130E2057FD9058440F551F59F05F3F71F0479597
S1130E30880F97FB991F61F09F3F79F0879508957C
S1130E40121613061406551FF2CF4695F1DF08C09B
S1130E50161617061806991FF1CF869571056105B8
S1130E6008940895E894BB2766277727CB0197F960
S1130E7008950E944C070C94FF060E94F10638F076
S1130E800E94F80620F0952311F00C94E8060C94C7
S1130E90EE0611240C9433070E94100770F3959FFB
S1130EA0C1F3950F50E0551F629FF001729FBB275D
S1130EB0F00DB11D639FAA27F00DB11DAA1F649FF9
S1130EC06627B00DA11D661F829F2227B00DA11DAC
S1130ED0621F739FB00DA11D621F839FA00D611D32
S1130EE0221F749F3327A00D611D231F849F600D53
S1130EF0211D822F762F6A2F11249F5750409AF07C
S1130F00F1F088234AF0EE0FFF1FBB1F661F771F07
S1130F10881F91505040A9F79E3F510580F00C94D2
S1130F20E8060C9433075F3FE4F3983ED4F38695C8
S1130F3077956795B795F795E7959F5FC1F7FE2B72
S1130F40880F911D9695879597F90895A1E21A2E19
S1130F50AA1BBB1BFD010DC0AA1FBB1FEE1FFF1F59
S1130F60A217B307E407F50720F0A21BB30BE40BA9
S1130F70F50B661F771F881F991F1A9469F76095F0
S1130F807095809590959B01AC01BD01CF010895AA
S1130F90EE0FFF1F0590F491E02D0994A29FB0017C
S1130FA0B39FC001A39F700D811D1124911DB29F99
S1110FB0700D811D1124911D0895F894FFCF3A
S1130FBE020202020000000000000000020202020F
S1130FCE0202000000000000020202000000000005
S1130FDE4649524520414C41524D20212100746511
S1130FEE6D703A00736D6F6B653A001400A70014B0
S1130FFE00C0006400290564003105C8006F04C8F0
S10B100E00AA04C800CB040091
S9030000FC
